S01400006D696E694672656552544F532E7372656399
S11300000C9481000C949E000C949E000C949E0011
S11300100C949E000C949E000C941F060C949E005D
S11300200C949E000C949E000C949E000C949E00D4
S11300300C949E000C949E000C949E000C949E00C4
S11300400C949E000C949E000C9425040C94800443
S11300500C949E000C949E000C949E000C949E00A4
S11300600C949E000C949E00DE0FDE0FDE0F191020
S113007007101610DE0FDE0F191007105265644CBE
S1130080454420486967685761746572204020259B
S1130090750D0A0043757272656E742054696D653E
S11300A07374616D703A20256C7520785461736B9C
S11300B04765745469636B436F756E7428293A20DD
S11300C025750D0A000D0A0A0A476F6F6462796587
S11300D02E2E2E206E6F20737061636520666F7202
S11300E02069646C65207461736B210D0A000D0A2C
S11300F00A0A48656C6C6F20576F726C64210D0A94
S1130100000011241FBECFEFD8E0DEBFCDBF11E049
S1130110A0E0B1E0E4E2F9E202C005900D92A4325D
S1130120B107D9F721E0A4E2B1E001C01D92A03DDE
S1130130B207E1F70E9403020C9490140C9400009F
S1130140FC010FB6F8946091CC017091CD018091BF
S1130150CE019091CF010FBE309721F0608371835F
S1130160828393830895CF93DF93EC010E94ED0A79
S1130170CE010E946210EC010E94B80B209711F48A
S11301800E94F100CE01DF91CF910895CF93DF93C8
S1130190009741F0EC010E94ED0ACE010E94FA1092
S11301A00E94B80BDF91CF9108958FE380937E0076
S11301B080B7877F80BF80B7806880BF83B7817F27
S11301C083BF0FB6F8940F9283B7816083BF85B75E
S11301D0806685BF8F7D85BF0F900FBE889513BE47
S11301E00895259A2D9A2FE788E391E021508040C5
S11301F09040E1F700C000001D9AF5CF259A2D9A92
S11302002FEF83ED90E3215080409040E1F700C050
S113021000001D9AF5CFFC010396928381832FEF92
S11302203FEF34832383968385839087878310826B
S11302300895FC01118610860895CF93DF939C01E5
S1130240FB01DC011196CD91DC911297D383C2831B
S11302508C819D81958384838C819D81DC0113969F
S11302607C936E9312977D836C8331872087F90189
S113027080818F5F8083DF91CF910895CF93DF9347
S1130280EB01488159814F3F2FEF520721F4FC01C4
S1130290A781B0850DC0DC01139601C0DF01129661
S11302A0ED91FC9113972081318142175307B0F7E8
S11302B01296ED91FC911397FB83EA83D583C48353
S11302C0BD83AC831396DC93CE931297998788876A
S11302D0FC0120812F5F2083DF91CF910895CF937C
S11302E0DF93FC01A085B185C281D381848195818E
S11302F09D838C83C481D581828193819B838A83EE
S113030011968D919C911297E817F90731F4848125
S1130310958112969C938E931197118610868C91D9
S113032081508C938C91DF91CF910895CF93DF937B
S113033000D0CDB7DEB70E94F30A9A838983219A4D
S11303400F2EF4E9EF2EF0E0FF2EF02D06EA11E077
S1130350299A6FE170E0CE0101960E94370C29982A
S11303606FE170E0CE0101960E94370C0E94F30AFF
S1130370D82EC92E80E090E00E94A000CF92DF9298
S11303809F938F937F936F93FF92EF921F930F939B
S11303900E94D4020FB6F894DEBF0FBECDBFD8CFF3
S11303A0CF93DF9300D0CDB7DEB70E94F30A9A83D0
S11303B08983579A0F2EFCE7EF2EF0E0FF2EF02DE5
S11303C006EA11E05F9A6FE170E0CE0101960E94A7
S11303D0370C5F986FE170E0CE0101960E94370CF4
S11303E080E090E00E94AE0D9F938F93FF92EF9276
S11303F01F930F930E94D4020F900F900F900F90B1
S11304000F900F90DFCFCDB7DEB7A297DEBFCDBF81
S11304106894EE24E5F8F12C00E810E020E032ECDA
S113042041E050E060E0CE0101960E94010382E2C7
S1130430FE013196A6EAB1E001900D928A95E1F7AA
S11304406EEE70E086EA91E00E94EE03E12CF12C5E
S113045003E020E030E040E051E066E071E080ED50
S113046091E00E94A80920E030E040E051E06DE016
S113047071E086E991E00E94A8090E94BF0A65EC38
S113048070E086EA91E00E94EE0380E090E0A2969C
S11304900FB6F894DEBF0FBECDBF0895EF92FF9262
S11304A00F931F93CF93DF93EC01FB010190002086
S11304B0E9F77B01CF01019761EC70E0AE01435F86
S11304C05F4F67C0D7011D917D010FB6F8940F925D
S11304D0ED85FE850F900FBE2F89388DE217F30747
S11304E001F1FA0122813381D9011C9322813381E4
S11304F02F5F3F4F338322830085118520173107F7
S113050021F426813781338322830FB6F8940F9226
S1130510208131812F5F3F4F318320830F900FBEA5
S113052031C0EFEFF9EF3197F1F700C000000FB6DB
S1130530F8940F92ED85FE850F900FBE2F89388DAC
S1130540E217F30731F1FA0122813381D9011C93B7
S1130550228133812F5F3F4F3383228300851185AE
S11305602017310721F426813781338322830FB684
S1130570F8940F92208131812F5F3F4F3183208384
S11305800F900FBE2881223020F4FB0120812062CD
S11305902083E816F90609F095CFDF91CF911F91DA
S11305A00F91FF90EF9008950F931F93CF93DF93D4
S11305B0CDB7DEB70F811885F801858D813031F410
S11305C00E946905F801858D8130D1F381E0F8013D
S11305D0858F638D748D9E01255F3F4F49855A85B4
S11305E0818D928D0E949C11F801618D728DC801DC
S11305F00E944E02F801158EDF91CF911F910F9149
S113060008957F928F929F92AF92BF92CF92DF9282
S1130610EF92FF920F931F93CF93DF93CDB7DEB783
S1130620A2970FB6F894DEBF0FBECDBF6C01762E35
S113063049015A01C7010E94B3000097A9F0FE01C5
S113064032960FB6F8940F921182108293838283AC
S113065095838483978386838E0D9F1D91878087DE
S1130660F386E2860F900FBEC8010E94B300009784
S1130670A9F0FE013E960FB6F8940F9211821082F3
S1130680938382839583848397838683800F911FCA
S113069091878087138702870F900FBEC8010E943D
S11306A0B3009B8F8A8F79821D8F0C8F1E8E8F8E45
S11306B098A2A9A2BAA20FB6F8940F9289818823AE
S11306C019F0813099F16BC0D501C40180589B4762
S11306D0A14EBF4FBC01CD01660F771F881F991F24
S11306E0660F771F881F991F95018401000F111F42
S11306F0221F331F000F111F221F331FA90198014E
S1130700220F331F441F551F0E943A1021503109F4
S11307103093C5002093C40082E08093C00088E930
S11307208093C1008EE08093C20039C004EC10E0D5
S1130730F80111821082549A80EC8093C20088E9F7
S11307408093C100D501C401805C9D4BA04FBF4F75
S1130750880F991FAA1FBB1F880F991FAA1FBB1FB1
S1130760BC01CD01660F771F881F991F880C991C47
S1130770AA1CBB1C880C991CAA1CBB1CA5019401B7
S1130780220F331F441F551F220F331F441F551FB1
S11307900E943A1021503109F801318320830F90CF
S11307A00FBE82E2FE013196D60101900D928A9528
S11307B0E1F7C601A2960FB6F894DEBF0FBECDBF17
S11307C0DF91CF911F910F91FF90EF90DF90CF9029
S11307D0BF90AF909F908F907F900895EF92FF927B
S11307E00F931F93CF93DF93EC018B01CB010E94F6
S11307F08311009719F17801B801680F791FA0ECF3
S1130800B0E030E006EC10E0F701449104C0F2E4FB
S1130810FA95F1F700C02881223018F49C91907267
S113082001C0932F992399F3223010F4F8014083E7
S1130830FFEFEF1AFF0AE616F70631F7DF91CF91C3
S11308401F910F91FF90EF9008951F920F920FB692
S11308500F9211242F933F934F938F939F93AF93B2
S1130860BF93EF93FF938091C0008C7171F08091DE
S1130870C00088230CF036C0A6ECB0E0E0ECF0E059
S11308808C9180818823E4F32DC04091C6000FB67B
S1130890F8940F92E6EAF1E0218132810F900FBEC5
S11308A08385948528173907E9F0E7EAF1E0A28106
S11308B0B3814C93828193810196938382832085B3
S11308C031858217930721F48681978193838283EC
S11308D00FB6F8940F928081918101969183808361
S11308E00F900FBEFF91EF91BF91AF919F918F91A8
S11308F04F913F912F910F900FBE0F901F9018951D
S11309001F920F920FB60F9211242F938F939F93E0
S1130910AF93BF93EF93FF930FB6F8940F92809128
S1130920B3019091B4010F900FBE892B31F4E1EC27
S1130930F0E080818F7D80831CC0E3EBF1E0A48133
S1130940B5812D91B583A48380859185A817B907B6
S113095021F486819781958384830FB6F8940F924E
S1130960808191810197918380830F900FBE2093A2
S1130970C600FF91EF91BF91AF919F918F912F91FD
S11309800F900FBE0F901F90189531E1FC0130833A
S1130990319722E220833197A3E3A08331976083C8
S11309A03197708331971082319760E86083319773
S11309B01082319762E06083319763E060833197FE
S11309C064E06083319765E06083319766E060831B
S11309D0319767E06083319768E06083319769E01D
S11309E06083319760E1608331973083319732E1DE
S11309F03083319733E13083319734E13083319759
S1130A0035E13083319736E13083319737E13083F4
S1130A10319738E13083319739E13083319730E2CF
S1130A203083319731E2308331972083319723E249
S1130A3020833197408331975083319726E2208376
S1130A40319727E22083319728E22083319729E2E6
S1130A502083319720E32083319721E320838697F5
S1130A600895A89590EC88E10FB6F894A895809322
S1130A7060000FBE90936000A0918801B09189013D
S1130A80CD91CDBFDD91DEBFFF91EF91DF91CF918D
S1130A90BF91AF919F918F917F916F915F914F9192
S1130AA03F912F911F910F91FF90EF90DF90CF9086
S1130AB0BF90AF909F908F907F906F905F904F907A
S1130AC03F902F901F900F900FBE0F90089581E0DC
S1130AD008950F920FB6F8940F921F9211242F923B
S1130AE03F924F925F926F927F928F929F92AF92BA
S1130AF0BF92CF92DF92EF92FF920F931F932F93A7
S1130B003F934F935F936F937F938F939F93AF9391
S1130B10BF93CF93DF93EF93FF93A0918801B0919C
S1130B2089010DB60D920EB60D920E94750CA0911E
S1130B308801B0918901CD91CDBFDD91DEBFFF91D8
S1130B40EF91DF91CF91BF91AF919F918F917F9161
S1130B506F915F914F913F912F911F910F91FF9052
S1130B60EF90DF90CF90BF90AF909F908F907F9049
S1130B706F905F904F903F902F901F900F900FBEFB
S1130B800F9008950F920FB6F8940F921F921124AC
S1130B902F923F924F925F926F927F928F929F9289
S1130BA0AF92BF92CF92DF92EF92FF920F931F9377
S1130BB02F933F934F935F936F937F938F939F9361
S1130BC0AF93BF93CF93DF93EF93FF93A0918801EB
S1130BD0B09189010DB60D920EB60D9213BE0E940E
S1130BE0FD0A81110E94750CA0918801B0918901C0
S1130BF0CD91CDBFDD91DEBFFF91EF91DF91CF911C
S1130C00BF91AF919F918F917F916F915F914F9120
S1130C103F912F911F910F91FF90EF90DF90CF9014
S1130C20BF90AF909F908F907F906F905F904F9008
S1130C303F902F901F900F900FBE0F9008950E9429
S1130C40C20518950FB6F8940F92FC01928D0F907F
S1130C500FBE81E0911180E008950F931F93CF930D
S1130C60DF93EC01042F1A8D4C8D41110CC0888147
S1130C709981892B09F042C08C819D810E94D90DF4
S1130C801D821C8242C0011117C050E08A819B81E1
S1130C900E948C112C8D8A819B81820F911D9B83D4
S1130CA08A832C813D818217930750F18881998131
S1130CB09B838A8380E029C050E08E819F810E94BB
S1130CC08C118C8D90E09195819591092E813F81B5
S1130CD0280F391F3F832E834881598124173507F4
S1130CE030F42C813D81820F931F9F838E830230C9
S1130CF049F4112349F0115080E007C080E005C099
S1130D0080E003C080E001C080E01F5F1A8FDF91A4
S1130D10CF911F910F910895FC01448D4423A9F0B4
S1130D2050E026813781240F351F37832683848141
S1130D3095812817390720F08081918197838683D4
S1130D40CB01668177810E948C110895EF92FF9206
S1130D500F931F93CF938C010FB6F8940F92FC015D
S1130D60C68D1C16ACF48189811106C011C0F8012E
S1130D708189811105C00CC07801F1E1EF0EF11CED
S1130D80C7010E94210D81110E94AA0DC15079F75B
S1130D908FEFF801868F0F900FBE0FB6F8940F9265
S1130DA0C58D1C16ACF48085811106C011C0F801F4
S1130DB08085811105C00CC07801F8E0EF0EF11CAC
S1130DC0C7010E94210D81110E94AA0DC15079F71B
S1130DD08FEFF801858F0F900FBECF911F910F9168
S1130DE0FF90EF900895CF93DF93EC010FB6F89442
S1130DF00F92E881F9818B8D2C8D90E030E0829FF9
S1130E00A001839F500D929F500D11244E0F5F1F20
S1130E105D834C831A8EFB83EA830197829FA00132
S1130E20839F500D929F500D1124CF01840F951F65
S1130E309F838E838FEF8D8F8E8F61110CC0888579
S1130E40882389F0CE0108960E94210D882359F049
S1130E500E94690508C0CE0108960E940B01CE01CC
S1130E6041960E940B010F900FBE81E0DF91CF915C
S1130E7008950F931F93CF93DF93082F162F6623A4
S1130E80C1F0869FC00111244F960E94B300EC016B
S1130E90009741F415C00B8F1C8F61E0CE010E94B6
S1130EA0F3060EC04F9699838883F5CFD983C88300
S1130EB0F2CF8FE190E00E94B300EC01892BB1F7EF
S1130EC0CE01DF91CF911F910F9108959F92AF9220
S1130ED0BF92CF92DF92EF92FF920F931F93CF9323
S1130EE0DF9300D000D01F92CDB7DEB78C016B0129
S1130EF05D834C83A22EB12C992493947C0188E0C9
S1130F00E80EF11C0FB6F8940F92F801928D838DC0
S1130F10981718F0F2E0AF1219C04A2DB601C801B3
S1130F200E942D06F8019189992349F0C801419640
S1130F300E94210D882331F00E94690503C08111AC
S1130F400E9469050F900FBE81E050C08C819D8185
S1130F50892B21F40F900FBE80E048C0B11005C06A
S1130F60CE0101960E94690DB92C0F900FBE0E940C
S1130F70ED0A0FB6F8940F92F801858D8F3F09F4AE
S1130F80158EF801868D8F3F09F4168E0F900FBED3
S1130F90BE016C5F7F4FCE0101960E94740D8111DA
S1130FA01FC00FB6F8940F92F801928D838D0F90A5
S1130FB00FBE98130FC06C817D81C7010E94F60C8F
S1130FC0C8010E94A6060E94B80B81119BCF0E9403
S1130FD0690598CFC8010E94A6060E94B80B92CF5B
S1130FE0C8010E94A6060E94B80B80E00F900F90E3
S1130FF00F900F900F90DF91CF911F910F91FF9061
S1131000EF90DF90CF90BF90AF909F900895EF92B4
S1131010FF920F931F93CF93DF938A01FC01528DAC
S1131020338D531710F02230F1F4422F7801EC0184
S11310301E8D0E942D061F3F81F489898823A9F003
S1131040CE0141960E94210D882389F0E114F10418
S113105081F081E0F70180830DC0FF24F394F10E49
S1131060FE8E81E007C080E005C081E003C081E01E
S113107001C081E0DF91CF911F910F91FF90EF901C
S113108008959F92AF92BF92CF92DF92EF92FF9218
S11310900F931F93CF93DF9300D000D01F92CDB74F
S11310A0DEB78C015B015D834C83E12C992493941E
S11310B06C0181E1C80ED11C0FB6F8940F92F801AF
S11310C0F28CFF20A9F0B501C8010E948C06FA94A5
S11310D0F801F28E8085882339F0C80108960E94B1
S11310E0210D81110E9469050F900FBE81E051C04E
S11310F08C819D81892B21F40F900FBE80E049C023
S1131100E11005C0CE0101960E94690DE92C0F90F3
S11311100FBE0E94ED0A0FB6F8940F92F801858D68
S11311208F3F09F4158EF801868D8F3F09F4168ED2
S11311300F900FBEBE016C5F7F4FCE0101960E94DF
S1131140740D81111AC0C8010E942206882379F007
S11311506C817D81C6010E94F60CC8010E94A6061E
S11311600E94B80B8111A8CF0E946905A5CFC801C0
S11311700E94A6060E94B80B9FCFC8010E94A60633
S11311800E94B80BC8010E942206882309F494CF58
S113119080E00F900F900F900F900F90DF91CF9100
S11311A01F910F91FF90EF90DF90CF90BF90AF9081
S11311B09F900895CF93DF93EC010FB6F8940F92AC
S11311C08D8D8F3F09F41D8E8E8D8F3F09F41E8EF9
S11311D00F900FBE8A8D811104C0CE0141960E94EA
S11311E0080DCE010E94A606DF91CF910895E091EB
S11311F06201F09163018081811107C08FEF9FEF3D
S113120090933A01809339010895E0916201F0913D
S113121063010580F681E02D0680F781E02D82814F
S1131220938190933A01809339010895FF920F932B
S11312301F93CF93DF93EC01F62E0091410110919F
S11312404201809188019091890102960E946F0168
S1131250CF3F8FEFD80769F4FF2059F060918801E0
S1131260709189016E5F7F4F84E491E00E941D01BB
S11312702FC0C00FD11FE0918801F0918901D38361
S1131280C283C017D10768F4609188017091890105
S113129080916001909161016E5F7F4F0E943E01D9
S11312A017C06091880170918901809162019091C9
S11312B063016E5F7F4F0E943E01809139019091DE
S11312C03A01C817D90720F4D0933A01C0933901E1
S11312D0DF91CF911F910F91FF9008950EE411E0DB
S11312E00F2EF4E6EF2EF1E0FF2EF02D80914D014C
S11312F0882329F10FB6F8940F92D8011596ED9131
S1131300FC911697C681D781CE0102960E946F0187
S11313108091430181508093430180914D0181501C
S113132080934D010F900FBE8F89988D0E94C60047
S1131330CE010E94C60080914D018111DBCFF701DF
S11313408081823010F00E9469050E94D500CECFC2
S11313504F925F926F927F928F929F92AF92BF92C1
S1131360CF92DF92EF92FF920F93CF93DF934C01D2
S11313706B015A012901CA010E94B3003C01892B67
S113138009F4ECC088E290E00E94B300EC01892BE0
S1131390B1F0788E6F8AA50165EA70E0C3010E94FE
S11313A0951181E0A81AB1088F89988DA80EB91EED
S11313B0D6018C91898F8C91811105C018C0C3010D
S11313C00E94C600CBC0AE01465E5F4FF601319667
S11313D0B8E0CB0ED11CCF012191DA012D93AD01E0
S11313E0DC018C91882319F0EC15FD05A1F718A2F6
S11313F0043008F003E00E8B09A31AA26E01B2E0D8
S1131400CB0ED11CC6010E941901CE010C960E947C
S11314101901D987C88784E090E0801B91099D87D2
S11314208C87DB8BCA8B1BA21CA21DA21EA21FA22F
S1131430A201B401C5010E94C50499838883E11403
S1131440F10419F0F701D183C0830FB6F8940F9219
S1131450809143018F5F8093430180918801909133
S11314608901892BD1F5D0938901C093880180919A
S11314704301813009F041C084E691E00E940B01F0
S11314808DE691E00E940B0186E791E00E940B013A
S11314908FE791E00E940B018DE291E00E940B0125
S11314A084E291E00E940B0187E591E00E940B0128
S11314B08EE491E00E940B0184E491E00E940B0110
S11314C08DE291E0909363018093620184E291E064
S11314D0909361018093600110C080913F0181115C
S11314E00CC0E0918801F091890196898E89891751
S11314F020F0D0938901C093880180913B018F5FD4
S113150080933B018E8990914001981710F4809349
S1131510400190E09C01220F331F220F331F220F42
S1131520331F820F931FB6018C599E4F0E941D01D9
S11315300F900FBE80913F01882361F0E0918801F4
S1131540F091890196898E89981730F40E94690573
S113155081E005C081E003C081E001C08FEFDF912D
S1131560CF910F91FF90EF90DF90CF90BF90AF900D
S11315709F908F907F906F905F904F900895EF921F
S1131580FF920F930F2EF7E3EF2EF1E0FF2EF02DD5
S113159000E020E030E045E550E066E171E08EE6F1
S11315A099E00E94A8098130A1F40E94710E813053
S11315B081F4F8948FEF9FEF90933A01809339016F
S11315C081E080933F0110924201109241010E94F8
S11315D031050F91FF90EF900895809136018F5F50
S11315E08093360108950FB6F8940F9280914101CB
S11315F0909142010F900FBE0895CF92DF92EF9227
S1131600FF920F931F93CF93DF9380913601811143
S113161099C0E0904101F09042018FEFE81AF80A76
S1131620F0924201E0924101E114F104B9F4809195
S113163062019091630120916001309161013093C6
S11316406301209362019093610180936001809112
S11316503C018F5F80933C010E94F708809139011F
S113166090913A01E816F90610F4D12C53C0D12C0C
S1131670CC24C394E0916201F091630180818111D3
S113168007C08FEF9FEF90933A018093390142C0D6
S1131690E0916201F09163010580F681E02DC6813D
S11316A0D7818A819B81E816F90628F490933A0140
S11316B0809339012FC08E010E5F1F4FC8010E9415
S11316C06F018C899D89892B21F0CE010C960E9493
S11316D06F018E8990914001981710F48093400116
S11316E090E09C01220F331F220F331F220F331F60
S11316F0820F931FB8018C599E4F0E941D01E091E7
S11317008801F09189019E898689981708F4B2CFDF
S1131710DC2CB0CFE0918801F0918901868990E0BA
S1131720FC01EE0FFF1FEE0FFF1FEE0FFF1F8E0FCA
S11317309F1FFC01EC59FE4F8081823048F0DD246C
S1131740D39406C080913E018F5F80933E01D12CDB
S113175080913D01882311F0DD24D3948D2DDF91F8
S1131760CF911F910F91FF90EF90DF90CF9008954C
S1131770DF92EF92FF920F931F93CF93DF930FB6F5
S1131780F8940F92809136018150809336018091B4
S1131790360181115FC080914301811133C05DC066
S11317A0D7011596ED91FC911697C681D781CE018C
S11317B00C960E946F018E010E5F1F4FC8010E949C
S11317C06F018E8990914001981710F48093400125
S11317D090E09C01220F331F220F331F220F331F6F
S11317E0820F931FB8018C599E4F0E941D01E091F6
S11317F08801F09189019E898689981768F0D092B2
S11318003D010AC0C0E0D0E00F2EF7E5EF2EF1E075
S1131810FF2EF02DDD24D394F70180818111C0CFF8
S1131820CD2B11F00E94F708C0913E01CC2351F05A
S1131830D1E00E94FD0A8111D0933D01C150C9F746
S113184010923E0180913D01882331F00E94690588
S113185081E003C080E001C080E00F900FBEDF9103
S1131860CF911F910F91FF90EF90DF9008950F9308
S11318701F93CF93DF938C01EB010E94ED0A4091FB
S1131880410150914201F80120813181C9018C0F3D
S11318909D1F4217530748F482179307E8F4918376
S11318A080834817590768F407C08217930780F0AC
S11318B04817590768F010C060E0841B950B0E941C
S11318C016090E94B80B81110BC00E94690508C05B
S11318D0F80191838083F0CFF80191838083F1CF65
S11318E0DF91CF911F910F91089580913601882344
S11318F021F081E080933D01089510923D01A09173
S11319008801B0918901E0918801F09189012D91BC
S11319103C918789908D8217930760F060918801CC
S1131920709189018091880190918901675E7F4F50
S11319300E94FE0020914001822F90E0FC01EE0FF6
S1131940FF1FEE0FFF1FEE0FFF1FE80FF91FEC59EB
S1131950FE4F3081311111C02150822F90E0FC01E3
S1131960EE0FFF1FEE0FFF1FEE0FFF1FE80FF91F13
S1131970EC59FE4F3081332379F3AC01440F551FEA
S1131980440F551F440F551F480F591FDA01AC5916
S1131990BE4F1196ED91FC9112970280F381E02DD8
S11319A01296FC93EE93119749595E4FE417F5078D
S11319B029F442815381FD0152834183FC01EE0FDE
S11319C0FF1FEE0FFF1FEE0FFF1F8E0F9F1FFC0167
S11319D0EC59FE4F0180F281E02D8681978190932E
S11319E0890180938801209340010895CF93DF9368
S11319F0EB016091880170918901645F7F4F0E94BF
S1131A003E0161E0CE010E941609DF91CF91089555
S1131A100F931F93CF938B01C42F60918801709112
S1131A208901645F7F4F0E941D01CC2311F00FEFE9
S1131A301FEF6C2FC8010E941609CF911F910F91BF
S1131A4008950F931F93CF93DF93DC011596ED91C7
S1131A50FC911697C681D7818E01045F1F4FC80180
S1131A600E946F018091360181111CC00A50110936
S1131A70C8010E946F018E8990914001981710F45B
S1131A808093400190E09C01220F331F220F331FEB
S1131A90220F331F820F931FB8018C599E4F0E944F
S1131AA01D0105C0B80187E591E00E941D01E09188
S1131AB08801F09189019E898689891720F481E043
S1131AC080933D0101C080E0DF91CF911F910F9180
S1131AD0089520913C01FC01208320914101309123
S1131AE04201328321830895CF93DF930FB6F89494
S1131AF00F922091410130914201DB014D915C91A3
S1131B004F3FBFEF5B07F1F0EC01E981FA81A0914F
S1131B103C01B881BA1719F02E173F07A8F42E1B01
S1131B203F0B2417350748F4FB01421B530B518329
S1131B3040830E94690D80E008C0FB01118210827D
S1131B4081E003C080E001C081E00F900FBEDF910F
S1131B50CF91089581E080933D010895009721F489
S1131B608091880190918901DC015796ED91FC9157
S1131B7058978081853A59F4319680E090E0DC01F1
S1131B800196A11DB11D2191253AD1F3089580E05C
S1131B9090E0DC01089580913F01882331F0809129
S1131BA03601882321F080E0089581E0089582E0E1
S1131BB008950F931F93CF93DF93FC01892B79F141
S1131BC082A1815082A3268991A1291751F1811103
S1131BD02AC0EF018F010E5F1F4FC8010E946F01E1
S1131BE089A18E8B24E030E0281B31093D872C87A6
S1131BF090914001981710F48093400190E09C016B
S1131C00220F331F220F331F220F331F820F931F04
S1131C10B8018C599E4F0E941D0181E005C080E0EF
S1131C2003C080E001C080E0DF91CF911F910F914C
S1131C300895FC0173836283918780874617570751
S1131C4090F0421B530B8485958548175907E0F49F
S1131C50BF016E5F7F4F8091A2019091A3010E940A
S1131C603E0180E008954217530718F46217730782
S1131C7068F4BF016E5F7F4F8091A4019091A5012C
S1131C800E943E0180E0089581E0089581E0089576
S1131C900FB6F8940F928091A0019091A101892B25
S1131CA0E9F483E991E00E940B018AE891E00E9443
S1131CB00B0183E991E09093A5018093A4018AE844
S1131CC091E09093A3018093A20140E065E08AE053
S1131CD00E9439079093A1018093A0010F900FBE39
S1131CE00895EF92FF920F930E94480E8091A001F5
S1131CF09091A101892B91F00F2EFEE9EF2EF1E0D6
S1131D00FF2EF02D03E020E030E045E550E06BE1EC
S1131D1071E08BE49FE00E94A80901C080E00F916C
S1131D20FF90EF9008950F931F93CF93DF9300D00C
S1131D3000D01F92CDB7DEB7E091A001F091A101D0
S1131D40309771F1D90169835B834A839D838C83C6
S1131D506630ECF40E94CB0D823061F420E0A801DF
S1131D60BE016F5F7F4F8091A0019091A1010E94FD
S1131D70660717C020E040E050E0BE016F5F7F4F70
S1131D808091A0019091A1010E9466070AC020E001
S1131D90AD01BE016F5F7F4FCF010E94070801C0F4
S1131DA080E00F900F900F900F900F90DF91CF91E4
S1131DB01F910F910895AF92BF92CF92DF92EF924D
S1131DC0FF920F931F93CF93DF936C010E94F30A4A
S1131DD07C0180919C0190919D01E816F90608F020
S1131DE048C030C00580F681E02DA080B180C68156
S1131DF0D7818E010E5F1F4FC8010E946F01E989D0
S1131E00FA89CE0109958E858130E1F48C859D8512
S1131E108A0D9B1DA816B90660F49B838A83D98713
S1131E20C887B8018091A4019091A5010E943E0148
S1131E3009C000E010E020E030E0A50160E0CE0140
S1131E400E94930EE091A401F091A501808181117B
S1131E50C9CF8091A2019091A3019093A501809391
S1131E60A401F093A301E093A20181E0F601808331
S1131E7002C0F6011082F0929D01E0929C01C7011C
S1131E80DF91CF911F910F91FF90EF90DF90CF9052
S1131E90BF90AF900895CF93DF9300D000D000D0CF
S1131EA0CDB7DEB7CE0101964C0144244394E12C16
S1131EB0F12C512CC82ED92CE091A401F091A5014C
S1131EC08081882309F4C2C00580F681E02DA080BA
S1131ED0B1800E94ED0AC4010E94DB0E8C0189814D
S1131EE0811147C00A151B0598F10E94B80BE091B7
S1131EF0A401F091A5010580F681E02D668077802C
S1131F00C30102960E946F01D3011E968C911E9705
S1131F108130B1F41C966D917C911D976A0D7B1DE7
S1131F209501A801C3010E94190E882349F00E2DC2
S1131F301F2D2E2D3F2DA501652DC3010E94930E4B
S1131F40D3015196ED91FC915297C301099571C04B
S1131F50452DB501601B710B8091A0019091A101E9
S1131F600E94DA080E94B80B811163C00E946905BF
S1131F7060C00E94B80B5DC0898188230CF459C0ED
S1131F80AC80BD80F50182859385892B21F0C50144
S1131F9002960E946F01CE0106960E94DB0EE98133
S1131FA00E2FEE0F110B220B330B0A30110508F024
S1131FB040C0F801EC5CFF4F0C945C102A813B811B
S1131FC0D5011C966D917C911D97620F731FAC0116
S1131FD0C5010E94190E882361F1D5015196ED9136
S1131FE0FC915297C5010995F5018685813009F563
S1131FF04A815B8184859585480F591F0E2D1F2DBD
S11320002E2D3F2D652DC5010E94930E12C06A81AD
S11320107B81D5011D967C936E931C97680F791F65
S11320209C01AC01C5010E94190E03C0C5010E94A8
S1132030C6004E2D5F2D6C2D7D2D8091A0019091B9
S1132040A1010E944108811197CF36CF0E94ED0A69
S1132050C4010E94DB0E8C01898181118ACFE09139
S1132060A201F091A3018081442D8111452DAE2C54
S1132070BF2C6FCFA1E21A2EAA1BBB1BFD010DC002
S1132080AA1FBB1FEE1FFF1FA217B307E407F50724
S113209020F0A21BB30BE40BF50B661F771F881F00
S11320A0991F1A9469F760957095809590959B0196
S11320B0AC01BD01CF010895EE0FFF1F0590F4910F
S11320C0E02D09940F931F93CF93DF9382309105F2
S11320D010F482E090E0E091CA01F091CB0120E09D
S11320E030E0A0E0B0E0309719F1408151810281E5
S11320F0138148175907C8F08417950769F4109796
S113210031F012960C93129713961C9327C00093E8
S1132110CA011093CB0122C02115310519F04217D1
S1132120530718F49A01BD01EF01DF01F801DBCF79
S113213021153105F9F0281B390B2430310580F4C1
S11321408A819B816115710521F0FB019383828350
S113215004C09093CB018093CA01FE01329644C01F
S1132160FE01E20FF31F81939193225031093983C9
S113217028833AC02091C8013091C901232B41F42E
S113218020910201309103013093C9012093C801C9
S113219020910001309101012115310541F42DB741
S11321A03EB74091040150910501241B350BE09189
S11321B0C801F091C901E217F307A0F42E1B3F0BED
S11321C02817390778F0AC014E5F5F4F24173507A5
S11321D048F04E0F5F1F5093C9014093C80181938B
S11321E0919302C0E0E0F0E0CF01DF91CF911F9125
S11321F00F910895CF93DF93009709F481C0FC01F8
S1132200329713821282A091CA01B091CB01109728
S113221081F420813181820F931F2091C801309174
S1132220C9012817390751F5F093C901E093C80192
S113223067C0ED0120E030E0CE17DF0740F44A81AB
S11322405B819E0141155105F1F0EA01F5CFD3837D
S1132250C28340815181840F951FC817D90759F44F
S113226088819981840F951F0296918380838A8146
S11322709B81938382832115310529F4F093CB014B
S1132280E093CA013DC0E901FB83EA834991599176
S1132290C40FD51FEC17FD0761F480819181840F71
S11322A0951F0296E90199838883828193819B8398
S11322B08A83E0E0F0E012968D919C911397009749
S11322C019F0FD01DC01F7CF8D919C9111979D01CF
S11322D02E5F3F4F820F931F2091C8013091C90197
S11322E02817390769F4309729F41092CB0110921A
S11322F0CA0102C013821282B093C901A093C8011B
S1132300DF91CF910895FC0105900020E9F78095B5
S113231090958E0F9F1F0895FB01DC0102C0019070
S11323200D9241505040D8F70895DC0101C06D93DF
S113233041505040E0F70895AEE0B0E0E2EAF1E148
S11323400C9467148C01FA018EE08C831A83098340
S113235077FF02C060E070E8CB0101979E838D8314
S1132360A901BF01CE0101960E94C8114D815E8171
S113237057FD0AC02F813885421753070CF49A0180
S1132380F801E20FF31F10822E96E4E00C948314FC
S1132390ABE0B0E0EEECF1E10C9459146C017B017C
S11323A08A01FC0117821682838181FFCCC1CE0190
S11323B001963C01F6019381F70193FD859193FF0A
S11323C081917F01882309F4BAC1853239F493FDE0
S11323D0859193FF81917F01853229F4B60190E0C4
S11323E00E94BF13E7CF912C212C312CFFE1F31570
S11323F0D8F08B3279F038F4803279F08332A1F45A
S1132400232D20611DC08D3261F0803369F4232DAA
S1132410216016C0832D8260382EE32DE4603E2EA9
S11324202AC0F32DF8601DC037FC2DC020ED280F05
S11324302A3040F08E32B9F436FC81C1232D206459
S1132440322E19C036FE06C08AE0989E200D112453
S1132450922E11C0EAE02E9E200D1124222EF32D7F
S1132460F0623F2E08C08C3621F4832D8068382E0C
S113247002C0883641F4F70193FD859193FF819161
S11324807F018111B3CF982F9F7D9554933028F409
S11324900C5F1F4F9FE399830DC0833631F0833760
S11324A071F0833509F059C021C0F8018081898316
S11324B00E5F1F4F88248394912C530113C028016D
S11324C0F2E04F0E511CF801A080B18036FE03C02B
S11324D0692D70E002C06FEF7FEFC5010E94B41355
S11324E04C018201F32DFF773F2E16C0280122E014
S11324F0420E511CF801A080B18036FE03C0692D44
S113250070E002C06FEF7FEFC5010E94A9134C0178
S1132510F32DF0683F2E820133FC1BC0822D90E026
S113252088169906B0F4B60180E290E00E94BF13C9
S11325302A94F4CFF50137FC859137FE81915F0130
S1132540B60190E00E94BF1321102A9421E0821A60
S113255091088114910471F7E8C0843611F089362A
S113256041F5F80137FE07C0608171818281938152
S11325700C5F1F4F08C060817181072E000C880B0F
S1132580990B0E5F1F4FF32DFF763F2E97FF09C067
S113259090958095709561957F4F8F4F9F4FF06810
S11325A03F2E2AE030E0A3010E94FB13882E8618F8
S11325B045C0853731F4232D2F7EB22E2AE030E03A
S11325C025C0932D997FB92E8F36C1F018F4883524
S11325D079F0B5C0803719F0883721F0B0C0E92F01
S11325E0E061BE2EB4FE0DC0FB2DF460BF2E09C009
S11325F034FE0AC0292F2660B22E06C028E030E03F
S113260005C020E130E002C020E132E0F801B7FE6D
S113261007C060817181828193810C5F1F4F06C066
S11326206081718180E090E00E5F1F4FA3010E94E2
S1132630FB13882E8618FB2DFF773F2E36FE0DC028
S1132640232D2E7FA22E891458F434FE0BC032FCA5
S113265009C0832D8E7EA82E05C0B82CA32C03C0E0
S1132660B82C01C0B92CA4FE0FC0FE01E80DF11D69
S11326708081803321F49A2D997EA92E09C0A2FE6F
S113268006C0B394B39404C08A2D867809F0B39439
S1132690A3FC11C0A0FE06C0B21488F4280C922C2E
S11326A09B180EC0B21460F4B60180E290E00E9460
S11326B0BF13B394F7CFB21418F42B1802C0982C9C
S11326C0212CA4FE10C0B60180E390E00E94BF1349
S11326D0A2FE17C0A1FC03C088E790E002C088E511
S11326E090E0B6010CC08A2D867859F0A1FE02C094
S11326F08BE201C080E2A7FC8DE2B60190E00E946B
S1132700BF13891438F4B60180E390E00E94BF132C
S11327109A94F7CF8A94F301E80DF11D8081B601F4
S113272090E00E94BF138110F5CF222009F442CE1D
S1132730B60180E290E00E94BF132A94F6CFF6011E
S11327408681978102C08FEF9FEF2B96E2E10C9474
S11327507514FC010590615070400110D8F7809504
S113276090958E0F9F1F0895FC0161507040019059
S11327700110D8F7809590958E0F9F1F08950F93A1
S11327801F93CF93DF93FB01238121FD03C08FEFC0
S11327909FEF2CC022FF16C04681578124813581CA
S11327A04217530744F4A081B1819D012F5F3F4F2D
S11327B0318320838C93268137812F5F3F4F37836A
S11327C0268314C08B01EC01FB010084F185E02D0C
S11327D00995892BE1F6D80116968D919C9117974E
S11327E0019617969C938E931697CE01DF91CF9105
S11327F01F910F910895FA01AA27283051F1203131
S113280081F1E8946F936E7F6E5F7F4F8F4F9F4F80
S1132810AF4FB1E03ED0B4E03CD0670F781F891FC2
S11328209A1FA11D680F791F8A1F911DA11D6A0F90
S1132830711D811D911DA11D20D009F468943F9143
S11328402AE0269F11243019305D3193DEF6CF0142
S11328500895462F4770405D4193B3E00FD0C9F708
S1132860F6CF462F4F70405D4A3318F0495D31FD75
S11328704052419302D0A9F7EACFB4E0A6959795C8
S1132880879577956795BA95C9F70097610571059E
S113289008959B01AC010A2E0694579547953795E8
S11328A02795BA95C9F7620F731F841F951FA01D42
S11328B008952F923F924F925F926F927F928F92E0
S11328C09F92AF92BF92CF92DF92EF92FF920F93BB
S11328D01F93CF93DF93CDB7DEB7CA1BDB0B0FB6C5
S11328E0F894DEBF0FBECDBF09942A883988488882
S11328F05F846E847D848C849B84AA84B984C88418
S1132900DF80EE80FD800C811B81AA81B981CE0F0E
S1132910D11D0FB6F894DEBF0FBECDBFED010895F3
S1072920F894FFCF55
S11329240000D00120005265644C454400477265A0
S1132934656E4C45440049444C4500546D72205323
S107294476630000B2
S9030000FC
