:100000000C943E000C945B000C945B000C945B0021
:100010000C945B000C945B000C9488030C945B00C4
:100020000C945B000C945B000C945B000C945B00E4
:100030000C945B000C945B000C945B000C945B00D4
:100040000C945B000C945B000C948E010C94E90101
:100050000C945B000C945B000C945B000C945B00B4
:100060000C945B000C945B002A0D2A0D2A0D650D83
:10007000530D620D2A0D2A0D650D530D11241FBE5F
:10008000CFEFD8E0DEBFCDBF11E0A0E0B1E0EEE7FA
:10009000FDE102C005900D92A432B107D9F721E02D
:1000A000A4E2B1E001C01D92AC3CB207E1F70E94AE
:1000B00072010C94BD0E0C940000CF93DF93EC0101
:1000C0000E945608CE010E948C0DEC010E9421096D
:1000D000209711F40E949B00CE01DF91CF910895EB
:1000E000CF93DF93009741F0EC010E945608CE01B8
:1000F0000E94240E0E942109DF91CF9108958FE381
:1001000080937E0080B7877F80BF80B7806880BF84
:1001100083B7817F83BF0FB6F8940F9283B7816056
:1001200083BF85B7806685BF8F7D85BF0F900FBE6B
:10013000889513BE0895259A2D9A2FE788E391E0BC
:10014000215080409040E1F700C000001D9AF5CF9B
:10015000259A2D9A2FEF83ED90E321508040904017
:10016000E1F700C000001D9AF5CFFC0103969283D1
:1001700081832FEF3FEF348323839683858390879A
:10018000878310820895FC01118610860895CF930D
:10019000DF939C01FB01DC011196CD91DC9112975C
:1001A000D383C2838C819D81958384838C819D813F
:1001B000DC0113967C936E9312977D836C83318759
:1001C0002087F90180818F5F8083DF91CF9108952F
:1001D000CF93DF93EB01488159814F3F2FEF5207B7
:1001E00021F4FC01A781B0850DC0DC01139601C08C
:1001F000DF011296ED91FC91139720813181421716
:100200005307B0F71296ED91FC911397FB83EA83A5
:10021000D583C483BD83AC831396DC93CE931297AE
:1002200099878887FC0120812F5F2083DF91CF9100
:100230000895CF93DF93FC01A085B185C281D3815E
:10024000848195819D838C83C481D58182819381B2
:100250009B838A8311968D919C911297E817F907D9
:1002600031F48481958112969C938E931197118617
:1002700010868C9181508C938C91DF91CF91089551
:10028000CF93DF9300D0CDB7DEB70E945C089A838E
:100290008983259A2D9A6FE170E0CE0101960E9424
:1002A000A0092D986FE170E0CE0101960E94A0098F
:1002B000F1CFCF93DF9300D0CDB7DEB70E945C08BB
:1002C0009A838983279A2F9A6FE170E0CE01019675
:1002D0000E94A0092F986FE170E0CE0101960E9464
:1002E000A009F1CFE12CF12C03E020E030E040E068
:1002F00051E066E071E089E591E00E94110720E09D
:1003000030E040E051E06DE071E080E491E00E9477
:1003100011070E94280880E090E008951F920F9234
:100320000FB60F9211242F933F934F938F939F9368
:10033000AF93BF93EF93FF938091C0008C7171F0E6
:100340008091C00088230CF036C0A6ECB0E0E0EC51
:10035000F0E08C9180818823E4F32DC04091C600A9
:100360000FB6F8940F92E6EAF1E0218132810F9006
:100370000FBE8385948528173907E9F0E7EAF1E095
:10038000A281B3814C93828193810196938382836E
:10039000208531858217930721F486819781938385
:1003A00082830FB6F8940F92808191810196918398
:1003B00080830F900FBEFF91EF91BF91AF919F91FE
:1003C0008F914F913F912F910F900FBE0F901F90E3
:1003D00018951F920F920FB60F9211242F938F939F
:1003E0009F93AF93BF93EF93FF930FB6F8940F9241
:1003F0008091B3019091B4010F900FBE892B31F41D
:10040000E1ECF0E080818F7D80831CC0E3EBF1E0C4
:10041000A481B5812D91B583A48380859185A8178A
:10042000B90721F486819781958384830FB6F89468
:100430000F92808191810197918380830F900FBEED
:100440002093C600FF91EF91BF91AF919F918F9143
:100450002F910F900FBE0F901F90189531E1FC0166
:100460003083319722E220833197A3E3A083319731
:1004700060833197708331971082319760E8608391
:1004800031971082319762E06083319763E0608337
:10049000319764E06083319765E06083319766E06F
:1004A0006083319767E06083319768E060833197BC
:1004B00069E06083319760E16083319730833197E1
:1004C00032E13083319733E13083319734E1308347
:1004D000319735E13083319736E13083319737E119
:1004E0003083319738E13083319739E13083319768
:1004F00030E23083319731E2308331972083319776
:1005000023E220833197408331975083319726E24D
:100510002083319727E22083319728E22083319787
:1005200029E22083319720E32083319721E3208340
:1005300086970895A89590EC88E10FB6F894A89551
:10054000809360000FBE90936000A0918801B091ED
:100550008901CD91CDBFDD91DEBFFF91EF91DF919C
:10056000CF91BF91AF919F918F917F916F915F914B
:100570004F913F912F911F910F91FF90EF90DF903E
:10058000CF90BF90AF909F908F907F906F905F9033
:100590004F903F902F901F900F900FBE0F90089597
:1005A00081E008950F920FB6F8940F921F921124D4
:1005B0002F923F924F925F926F927F928F929F9273
:1005C000AF92BF92CF92DF92EF92FF920F931F9361
:1005D0002F933F934F935F936F937F938F939F934B
:1005E000AF93BF93CF93DF93EF93FF93A0918801D5
:1005F000B09189010DB60D920EB60D920E94DE09E2
:10060000A0918801B0918901CD91CDBFDD91DEBF70
:10061000FF91EF91DF91CF91BF91AF919F918F911A
:100620007F916F915F914F913F912F911F910F910A
:10063000FF90EF90DF90CF90BF90AF909F908F9002
:100640007F906F905F904F903F902F901F900F90F2
:100650000FBE0F9008950F920FB6F8940F921F924D
:1006600011242F923F924F925F926F927F928F92BE
:100670009F92AF92BF92CF92DF92EF92FF920F9331
:100680001F932F933F934F935F936F937F938F931A
:100690009F93AF93BF93CF93DF93EF93FF93A0917B
:1006A0008801B09189010DB60D920EB60D9213BE60
:1006B0000E94660881110E94DE09A0918801B09114
:1006C0008901CD91CDBFDD91DEBFFF91EF91DF912B
:1006D000CF91BF91AF919F918F917F916F915F91DA
:1006E0004F913F912F911F910F91FF90EF90DF90CD
:1006F000CF90BF90AF909F908F907F906F905F90C2
:100700004F903F902F901F900F900FBE0F90089525
:100710000E942B0318950FB6F8940F92FC01928D4E
:100720000F900FBE81E0911180E008950F931F9309
:10073000CF93DF93EC01042F1A8D4C8D41110CC027
:1007400088819981892B09F042C08C819D810E940A
:10075000250B1D821C8242C0011117C050E08A8106
:100760009B810E94AD0E2C8D8A819B81820F911DF1
:100770009B838A832C813D818217930750F1888166
:1007800099819B838A8380E029C050E08E819F817C
:100790000E94AD0E8C8D90E09195819591092E81EE
:1007A0003F81280F391F3F832E83488159812417A9
:1007B000350730F42C813D81820F931F9F838E83F8
:1007C000023049F4112349F0115080E007C080E065
:1007D00005C080E003C080E001C080E01F5F1A8F89
:1007E000DF91CF911F910F910895FC01448D442317
:1007F000A9F050E026813781240F351F37832683E7
:10080000848195812817390720F080819181978311
:100810008683CB01668177810E94AD0E0895EF92A9
:10082000FF920F931F93CF938C010FB6F8940F9202
:10083000FC01C68D1C16ACF48189811106C011C063
:10084000F8018189811105C00CC07801F1E1EF0E3A
:10085000F11CC7010E948A0A81110E94130BC1502A
:1008600079F78FEFF801868F0F900FBE0FB6F894CF
:100870000F92C58D1C16ACF48085811106C011C085
:10088000F8018085811105C00CC07801F8E0EF0EF9
:10089000F11CC7010E948A0A81110E94130BC150EA
:1008A00079F78FEFF801858F0F900FBECF911F91D1
:1008B0000F91FF90EF900895CF93DF93EC010FB667
:1008C000F8940F92E881F9818B8D2C8D90E030E0C7
:1008D000829FA001839F500D929F500D11244E0FB7
:1008E0005F1F5D834C831A8EFB83EA830197829F8F
:1008F000A001839F500D929F500D1124CF01840FB2
:10090000951F9F838E838FEF8D8F8E8F61110CC00B
:100910008885882389F0CE0108960E948A0A882358
:1009200059F00E94D20208C0CE0108960E94B5007C
:10093000CE0141960E94B5000F900FBE81E0DF917D
:10094000CF9108950F931F93CF93DF93082F162F06
:100950006623C1F0869FC00111244F960E945D005E
:10096000EC01009741F415C00B8F1C8F61E0CE01A4
:100970000E945C040EC04F9699838883F5CFD9837B
:10098000C883F2CF8FE190E00E945D00EC01892BDB
:10099000B1F7CE01DF91CF911F910F9108959F92F2
:1009A000AF92BF92CF92DF92EF92FF920F931F937D
:1009B000CF93DF9300D000D01F92CDB7DEB78C016C
:1009C0006B015D834C83A22EB12C992493947C01FE
:1009D00088E0E80EF11C0FB6F8940F92F801928DA2
:1009E000838D981718F0F2E0AF1219C04A2DB601A6
:1009F000C8010E949603F8019189992349F0C80122
:100A000041960E948A0A882331F00E94D20203C0D4
:100A100081110E94D2020F900FBE81E050C08C81E4
:100A20009D81892B21F40F900FBE80E048C0B1104A
:100A300005C0CE0101960E94D20AB92C0F900FBEBC
:100A40000E9456080FB6F8940F92F801858D8F3FDB
:100A500009F4158EF801868D8F3F09F4168E0F90DC
:100A60000FBEBE016C5F7F4FCE0101960E94DD0A72
:100A700081111FC00FB6F8940F92F801928D838DEB
:100A80000F900FBE98130FC06C817D81C7010E942B
:100A90005F0AC8010E940F040E94210981119BCFA7
:100AA0000E94D20298CFC8010E940F040E9421091F
:100AB00092CFC8010E940F040E94210980E00F908C
:100AC0000F900F900F900F90DF91CF911F910F918A
:100AD000FF90EF90DF90CF90BF90AF909F900895E0
:100AE000EF92FF920F931F93CF93DF938A01FC0144
:100AF000528D338D531710F02230F1F4422F7801CC
:100B0000EC011E8D0E9496031F3F81F48989882382
:100B1000A9F0CE0141960E948A0A882389F0E11447
:100B2000F10481F081E0F70180830DC0FF24F3948C
:100B3000F10EFE8E81E007C080E005C081E003C0B9
:100B400081E001C081E0DF91CF911F910F91FF9073
:100B5000EF9008959F92AF92BF92CF92DF92EF9263
:100B6000FF920F931F93CF93DF9300D000D01F927B
:100B7000CDB7DEB78C015B015D834C83E12C9924FA
:100B800093946C0181E1C80ED11C0FB6F8940F92BA
:100B9000F801F28CFF20A9F0B501C8010E94F5030D
:100BA000FA94F801F28E8085882339F0C8010896FE
:100BB0000E948A0A81110E94D2020F900FBE81E02A
:100BC00051C08C819D81892B21F40F900FBE80E054
:100BD00049C0E11005C0CE0101960E94D20AE92C5D
:100BE0000F900FBE0E9456080FB6F8940F92F801AE
:100BF000858D8F3F09F4158EF801868D8F3F09F49E
:100C0000168E0F900FBEBE016C5F7F4FCE01019616
:100C10000E94DD0A81111AC0C8010E948B0388233B
:100C200079F06C817D81C6010E945F0AC8010E9433
:100C30000F040E9421098111A8CF0E94D202A5CFE2
:100C4000C8010E940F040E9421099FCFC8010E9481
:100C50000F040E942109C8010E948B03882309F414
:100C600094CF80E00F900F900F900F900F90DF9136
:100C7000CF911F910F91FF90EF90DF90CF90BF9099
:100C8000AF909F900895CF93DF93EC010FB6F89447
:100C90000F928D8D8F3F09F41D8E8E8D8F3F09F43D
:100CA0001E8E0F900FBE8A8D811104C0CE01419619
:100CB0000E94710ACE010E940F04DF91CF91089526
:100CC000E0916201F09163018081811107C08FEF93
:100CD0009FEF90933A01809339010895E09162016A
:100CE000F09163010580F681E02D0680F781E02D0B
:100CF0008281938190933A01809339010895FF9204
:100D00000F931F93CF93DF93EC01F62E00914101D7
:100D100010914201809188019091890102960E9470
:100D20001901CF3F8FEFD80769F4FF2059F0609188
:100D30008801709189016E5F7F4F84E491E00E9489
:100D4000C7002FC0C00FD11FE0918801F091890129
:100D5000D383C283C017D10768F460918801709172
:100D6000890180916001909161016E5F7F4F0E94C7
:100D7000E80017C06091880170918901809162013B
:100D8000909163016E5F7F4F0E94E800809139016E
:100D900090913A01C817D90720F4D0933A01C09333
:100DA0003901DF91CF911F910F91FF9008950EE4CB
:100DB00011E00F2EF4E6EF2EF1E0FF2EF02D8091E2
:100DC0004D01882329F10FB6F8940F92D80115969A
:100DD000ED91FC911697C681D781CE0102960E94B3
:100DE00019018091430181508093430180914D010D
:100DF000815080934D010F900FBE8F89988D0E9476
:100E00007000CE010E94700080914D018111DBCFF6
:100E1000F7018081823010F00E94D2020E947F0090
:100E2000CECF4F925F926F927F928F929F92AF92AE
:100E3000BF92CF92DF92EF92FF920F93CF93DF9307
:100E40004C016B015A012901CA010E945D003C015D
:100E5000892B09F4ECC088E290E00E945D00EC016F
:100E6000892BB1F0788E6F8AA50165EA70E0C30125
:100E70000E94B60E81E0A81AB1088F89988DA80E3D
:100E8000B91ED6018C91898F8C91811105C018C033
:100E9000C3010E947000CBC0AE01465E5F4FF601F9
:100EA0003196B8E0CB0ED11CCF012191DA012D9300
:100EB000AD01DC018C91882319F0EC15FD05A1F73B
:100EC00018A2043008F003E00E8B09A31AA26E01E9
:100ED000B2E0CB0ED11CC6010E94C300CE010C961D
:100EE0000E94C300D987C88784E090E0801B9109E5
:100EF0009D878C87DB8BCA8B1BA21CA21DA21EA206
:100F00001FA2A201B401C5010E942E029983888309
:100F1000E114F10419F0F701D183C0830FB6F894FE
:100F20000F92809143018F5F8093430180918801EC
:100F300090918901892BD1F5D0938901C0938801C3
:100F400080914301813009F041C084E691E00E9424
:100F5000B5008DE691E00E94B50086E791E00E9421
:100F6000B5008FE791E00E94B5008DE291E00E940C
:100F7000B50084E291E00E94B50087E591E00E940F
:100F8000B5008EE491E00E94B50084E491E00E94F7
:100F9000B5008DE291E0909363018093620184E259
:100FA00091E0909361018093600110C080913F01B6
:100FB00081110CC0E0918801F091890196898E8998
:100FC000891720F0D0938901C093880180913B015B
:100FD0008F5F80933B018E8990914001981710F4A8
:100FE0008093400190E09C01220F331F220F331F9A
:100FF000220F331F820F931FB6018C599E4F0E9400
:10100000C7000F900FBE80913F01882361F0E091EF
:101010008801F091890196898E89981730F40E9491
:10102000D20281E005C081E003C081E001C08FEF02
:10103000DF91CF910F91FF90EF90DF90CF90BF9015
:10104000AF909F908F907F906F905F904F9008959A
:10105000EF92FF920F930F2EF7E3EF2EF1E0FF2EAA
:10106000F02D00E020E030E045E550E066E171E081
:1010700087ED96E00E9411078130A1F40E94BD0B1C
:10108000813081F4F8948FEF9FEF90933A01809331
:10109000390181E080933F01109242011092410199
:1010A0000E949A020F91FF90EF900895809136016F
:1010B0008F5F8093360108950FB6F8940F92809158
:1010C0004101909142010F900FBE0895CF92DF929F
:1010D000EF92FF920F931F93CF93DF93809136018E
:1010E000811199C0E0904101F09042018FEFE81A20
:1010F000F80AF0924201E0924101E114F104B9F4DE
:1011000080916201909163012091600130916101B1
:101110003093630120936201909361018093600199
:1011200080913C018F5F80933C010E94600680911A
:10113000390190913A01E816F90610F4D12C53C008
:10114000D12CCC24C394E0916201F09163018081A1
:10115000811107C08FEF9FEF90933A01809339017F
:1011600042C0E0916201F09163010580F681E02DBB
:10117000C681D7818A819B81E816F90628F490936D
:101180003A01809339012FC08E010E5F1F4FC801B5
:101190000E9419018C899D89892B21F0CE010C9622
:1011A0000E9419018E8990914001981710F4809344
:1011B000400190E09C01220F331F220F331F220FAA
:1011C000331F820F931FB8018C599E4F0E94C70096
:1011D000E0918801F09189019E898689981708F429
:1011E000B2CFDC2CB0CFE0918801F09189018689E3
:1011F00090E0FC01EE0FFF1FEE0FFF1FEE0FFF1F31
:101200008E0F9F1FFC01EC59FE4F8081823048F009
:10121000DD24D39406C080913E018F5F80933E0110
:10122000D12C80913D01882311F0DD24D3948D2DA4
:10123000DF91CF911F910F91FF90EF90DF90CF90B2
:101240000895DF92EF92FF920F931F93CF93DF9356
:101250000FB6F8940F928091360181508093360139
:101260008091360181115FC080914301811133C0AB
:101270005DC0D7011596ED91FC911697C681D78177
:10128000CE010C960E9419018E010E5F1F4FC801FE
:101290000E9419018E8990914001981710F4809353
:1012A000400190E09C01220F331F220F331F220FB9
:1012B000331F820F931FB8018C599E4F0E94C700A5
:1012C000E0918801F09189019E898689981768F0DC
:1012D000D0923D010AC0C0E0D0E00F2EF7E5EF2E1E
:1012E000F1E0FF2EF02DDD24D394F70180818111F0
:1012F000C0CFCD2B11F00E946006C0913E01CC23DF
:1013000051F0D1E00E9466088111D0933D01C15097
:10131000C9F710923E0180913D01882331F00E946F
:10132000D20281E003C080E001C080E00F900FBED8
:10133000DF91CF911F910F91FF90EF90DF90089573
:101340000F931F93CF93DF938C01EB010E945608FC
:101350004091410150914201F80120813181C90140
:101360008C0F9D1F4217530748F482179307E8F428
:10137000918380834817590768F407C08217930741
:1013800080F04817590768F010C060E0841B950B87
:101390000E947F060E94210981110BC00E94D20287
:1013A00008C0F80191838083F0CFF8019183808396
:1013B000F1CFDF91CF911F910F9108958091360168
:1013C000882321F081E080933D01089510923D0132
:1013D000A0918801B0918901E0918801F091890183
:1013E0002D913C918789908D8217930760F06091D1
:1013F0008801709189018091880190918901675ECF
:101400007F4F0E94A80020914001822F90E0FC01B4
:10141000EE0FFF1FEE0FFF1FEE0FFF1FE80FF91F6C
:10142000EC59FE4F3081311111C02150822F90E0D4
:10143000FC01EE0FFF1FEE0FFF1FEE0FFF1FE80F67
:10144000F91FEC59FE4F3081332379F3AC01440F7F
:10145000551F440F551F440F551F480F591FDA01E0
:10146000AC59BE4F1196ED91FC9112970280F38119
:10147000E02D1296FC93EE93119749595E4FE417B5
:10148000F50729F442815381FD0152834183FC0118
:10149000EE0FFF1FEE0FFF1FEE0FFF1F8E0F9F1FA0
:1014A000FC01EC59FE4F0180F281E02D868197818D
:1014B0009093890180938801209340010895CF93F0
:1014C000DF93EB016091880170918901645F7F4F28
:1014D0000E94E80061E0CE010E947F06DF91CF917B
:1014E00008950F931F93CF938B01C42F60918801B0
:1014F00070918901645F7F4F0E94C700CC2311F077
:101500000FEF1FEF6C2FC8010E947F06CF911F9134
:101510000F9108950F931F93CF93DF93DC011596DE
:10152000ED91FC911697C681D7818E01045F1F4F04
:10153000C8010E9419018091360181111CC00A5016
:101540001109C8010E9419018E89909140019817D4
:1015500010F48093400190E09C01220F331F220F72
:10156000331F220F331F820F931FB8018C599E4FD8
:101570000E94C70005C0B80187E591E00E94C7003E
:10158000E0918801F09189019E898689891720F46C
:1015900081E080933D0101C080E0DF91CF911F91F8
:1015A0000F91089520913C01FC012083209141017D
:1015B00030914201328321830895CF93DF930FB698
:1015C000F8940F922091410130914201DB014D913D
:1015D0005C914F3FBFEF5B07F1F0EC01E981FA81CD
:1015E000A0913C01B881BA1719F02E173F07A8F453
:1015F0002E1B3F0B2417350748F4FB01421B530BEE
:10160000518340830E94D20A80E008C0FB0111820E
:10161000108281E003C080E001C081E00F900FBE26
:10162000DF91CF91089581E080933D0108958091ED
:101630003F01882331F080913601882321F080E03A
:10164000089581E0089582E008950F931F93CF934A
:10165000DF93FC01892B79F182A1815082A3268935
:1016600091A1291751F181112AC0EF018F010E5F5D
:101670001F4FC8010E94190189A18E8B24E030E020
:10168000281B31093D872C8790914001981710F451
:101690008093400190E09C01220F331F220F331FE3
:1016A000220F331F820F931FB8018C599E4F0E9447
:1016B000C70081E005C080E003C080E001C080E099
:1016C000DF91CF911F910F910895FC017383628385
:1016D000918780874617570790F0421B530B8485EC
:1016E000958548175907E0F4BF016E5F7F4F8091E1
:1016F000A2019091A3010E94E80080E008954217A2
:10170000530718F46217730768F4BF016E5F7F4FC9
:101710008091A4019091A5010E94E80080E00895C5
:1017200081E0089581E008950FB6F8940F928091BA
:10173000A0019091A101892BE9F483E991E00E9435
:10174000B5008AE891E00E94B50083E991E09093AA
:10175000A5018093A4018AE891E09093A30180936E
:10176000A20140E065E08AE00E94A2049093A101FA
:101770008093A0010F900FBE0895EF92FF920F93F8
:101780000E94940B8091A0019091A101892B91F06E
:101790000F2EFEE9EF2EF1E0FF2EF02D03E020E00A
:1017A00030E045E550E06BE171E087E99CE00E94A4
:1017B000110701C080E00F91FF90EF9008950F9303
:1017C0001F93CF93DF9300D000D01F92CDB7DEB729
:1017D000E091A001F091A101309771F1D9016983E5
:1017E0005B834A839D838C836630ECF40E94170BE5
:1017F000823061F420E0A801BE016F5F7F4F8091CD
:10180000A0019091A1010E94CF0417C020E040E008
:1018100050E0BE016F5F7F4F8091A0019091A101C8
:101820000E94CF040AC020E0AD01BE016F5F7F4F70
:10183000CF010E94700501C080E00F900F900F90C3
:101840000F900F90DF91CF911F910F910895AF925C
:10185000BF92CF92DF92EF92FF920F931F93CF939D
:10186000DF936C010E945C087C0180919C01909147
:101870009D01E816F90608F048C030C00580F681E1
:10188000E02DA080B180C681D7818E010E5F1F4FF1
:10189000C8010E941901E989FA89CE0109958E854E
:1018A0008130E1F48C859D858A0D9B1DA816B906B3
:1018B00060F49B838A83D987C887B8018091A4018B
:1018C0009091A5010E94E80009C000E010E020E02E
:1018D00030E0A50160E0CE010E94DF0BE091A401A1
:1018E000F091A50180818111C9CF8091A2019091D1
:1018F000A3019093A5018093A401F093A301E09329
:10190000A20181E0F601808302C0F6011082F0920C
:101910009D01E0929C01C701DF91CF911F910F9132
:10192000FF90EF90DF90CF90BF90AF900895CF934E
:10193000DF9300D000D000D0CDB7DEB7CE01019646
:101940004C0144244394E12CF12C512CC82ED92C69
:10195000E091A401F091A5018081882309F4C2C01F
:101960000580F681E02DA080B1800E945608C40158
:101970000E94270C8C018981811147C00A151B0523
:1019800098F10E942109E091A401F091A501058040
:10199000F681E02D66807780C30102960E941901CE
:1019A000D3011E968C911E978130B1F41C966D91D7
:1019B0007C911D976A0D7B1D9501A801C3010E94B2
:1019C000650B882349F00E2D1F2D2E2D3F2DA501CF
:1019D000652DC3010E94DF0BD3015196ED91FC915F
:1019E0005297C301099571C0452DB501601B710B5C
:1019F0008091A0019091A1010E9443060E942109BB
:101A0000811163C00E94D20260C00E9421095DC0A2
:101A1000898188230CF459C0AC80BD80F501828592
:101A20009385892B21F0C50102960E941901CE01F0
:101A300006960E94270CE9810E2FEE0F110B220B48
:101A4000330B0A30110508F040C0F801EC5CFF4F81
:101A50000C94860D2A813B81D5011C966D917C9159
:101A60001D97620F731FAC01C5010E94650B88238F
:101A700061F1D5015196ED91FC915297C5010995FF
:101A8000F5018685813009F54A815B8184859585DC
:101A9000480F591F0E2D1F2D2E2D3F2D652DC501D1
:101AA0000E94DF0B12C06A817B81D5011D967C9359
:101AB0006E931C97680F791F9C01AC01C5010E94B1
:101AC000650B03C0C5010E9470004E2D5F2D6C2D6B
:101AD0007D2D8091A0019091A1010E94AA05811104
:101AE00097CF36CF0E945608C4010E94270C8C0164
:101AF000898181118ACFE091A201F091A3018081B7
:101B0000442D8111452DAE2CBF2C6FCFEE0FFF1F42
:101B10000590F491E02D09940F931F93CF93DF93D9
:101B20008230910510F482E090E0E091CA01F091DA
:101B3000CB0120E030E0A0E0B0E0309719F1408127
:101B400051810281138148175907C8F084179507FE
:101B500069F4109731F012960C93129713961C9318
:101B600027C00093CA011093CB0122C02115310573
:101B700019F04217530718F49A01BD01EF01DF0174
:101B8000F801DBCF21153105F9F0281B390B243082
:101B9000310580F48A819B816115710521F0FB017B
:101BA0009383828304C09093CB018093CA01FE018A
:101BB000329644C0FE01E20FF31F819391932250AD
:101BC0003109398328833AC02091C8013091C90175
:101BD000232B41F420910201309103013093C9017C
:101BE0002093C80120910001309101012115310598
:101BF00041F42DB73EB74091040150910501241BDB
:101C0000350BE091C801F091C901E217F307A0F488
:101C10002E1B3F0B2817390778F0AC014E5F5F4F42
:101C20002417350748F04E0F5F1F5093C9014093AA
:101C3000C8018193919302C0E0E0F0E0CF01DF9111
:101C4000CF911F910F910895CF93DF93009709F4DF
:101C500081C0FC01329713821282A091CA01B09117
:101C6000CB01109781F420813181820F931F209145
:101C7000C8013091C9012817390751F5F093C901FE
:101C8000E093C80167C0ED0120E030E0CE17DF0728
:101C900040F44A815B819E0141155105F1F0EA0152
:101CA000F5CFD383C28340815181840F951FC8171C
:101CB000D90759F488819981840F951F02969183E1
:101CC00080838A819B81938382832115310529F446
:101CD000F093CB01E093CA013DC0E901FB83EA83A5
:101CE00049915991C40FD51FEC17FD0761F480810C
:101CF0009181840F951F0296E901998388838281DF
:101D000093819B838A83E0E0F0E012968D919C9111
:101D10001397009719F0FD01DC01F7CF8D919C918D
:101D200011979D012E5F3F4F820F931F2091C80195
:101D30003091C9012817390769F4309729F41092B6
:101D4000CB011092CA0102C013821282B093C90162
:101D5000A093C801DF91CF910895FB01DC0102C07F
:101D600001900D9241505040D8F70895DC0101C018
:0E1D70006D9341505040E0F70895F894FFCF76
:101D7E000000CC0120005265644C4544004772655A
:101D8E00656E4C45440049444C4500546D722053D9
:041D9E007663000068
:00000001FF
